:100000000C942A000C943F000C943F000C943F0089
:100010000C943F000C943F000C943F000C943F0064
:100020000C943F000C943F000C943F000C943F0054
:100030000C943F000C943F000C943F000C943F0044
:100040000C943F000C943F000C943F000C943F0034
:100050000C943F0011241FBECFE5D8E0DEBFCDBF1A
:1000600010E0A0E6B0E0E2E0F3E002C005900D92FF
:10007000A836B107D9F70E9457010C947F010C9460
:10008000000082B9089580E007C084EC86BF06B600
:1000900007FEFDCF81B1887F8036B9F7089584ECE3
:1000A00086BF06B607FEFDCF81B1887F8038F1F7A5
:1000B00083B10895613029F4E82FF0E08FEF818358
:1000C0000895E82FF0E011820895413069F4E82F97
:1000D000F0E0218181E090E002C0880F991F6A95CD
:1000E000E2F7822B81830895E82FF0E0218181E0FF
:1000F00090E002C0880F991F6A95E2F780958223ED
:1001000081830895E82FF0E0828121E030E002C091
:10011000220F331F6A95E2F7282B22830895E82FD8
:10012000F0E0828121E030E002C0220F331F6A95A7
:10013000E2F72095282322830895E82FF0E06283D8
:100140000895CF93C82F60E089E30E948F006C2F41
:10015000607F80E30E949D0061E089E30E9482004D
:1001600082E08A95F1F700C061E089E30E948F0088
:1001700087EC90E00197F1F700C000006C2F6295CA
:10018000607F80E30E949D0061E089E30E9482001D
:1001900092E09A95F1F700C061E089E30E948F0038
:1001A00087EC90E00197F1F700C00000CF9108952F
:1001B00061E080E30E945A0041E060E089E30E9430
:1001C000650041E061E089E30E94650060E080E352
:1001D0000E949D0061E089E30E948F008FE99FE00B
:1001E0000197F1F700C0000083E30E94A10082E3C1
:1001F0000E94A10088E20E94A1008EE00E94A1005E
:1002000081E00E94A1008FE99FE00197F1F700C013
:10021000000086E00E94A1000895CF93C82F60E0FF
:1002200089E30E9482006C2F607F80E30E949D0022
:1002300061E089E30E94820082E08A95F1F700C0C4
:1002400061E089E30E948F0087EC90E00197F1F76D
:1002500000C000006C2F6295607F80E30E949D00CB
:1002600061E089E30E94820092E09A95F1F700C074
:1002700061E089E30E948F0087EC90E00197F1F73D
:1002800000C00000CF9108950F931F93CF938C016E
:10029000C0E003C00E940D01CF5FF801EC0FF11D1B
:1002A00080818111F7CFCF911F910F9108950E9406
:1002B000D80080E20E9441008FE19EE40197F1F7AF
:1002C00000C0000080E690E00E9444018FE19EE4BF
:1002D0000197F1F700C000000E9443008FE19EE407
:1002E0000197F1F700C000000E944F000E940D012D
:1002F0008FE19EE40197F1F700C00000EDCFF89484
:02030000FFCF2D
:08030200534C4156453A20001E
:00000001FF
